:020000040800F2
:1000000000800120A12E0008F91D0008491B0008EE
:10001000FD1D0008011E0008051E0008000000006C
:10002000000000000000000000000000091E0008A1
:100030000D1E000800000000111E0008391B0008FA
:10004000C12B0008CD2B0008D92B0008E52B000898
:10005000F12B0008FD2B0008092C0008152C0008C6
:10006000212C00082D2C0008392C0008452C0008F4
:10007000512C00085D2C0008692C0008752C000824
:10008000812C00088D2C0008992C0008000000002D
:10009000000000000000000000000000A52C000887
:1000A000B12C0008BD2C0008C92C0008D52C000874
:1000B000E12C0008ED2C0008F92C0008052D0008A3
:1000C000112D00081D2D0008292D0008352D0008D0
:1000D000412D00084D2D0008592D0008000000009A
:1000E000652D0008712D00087D2D0008000000001E
:1000F000000000000000000000000000892D000842
:1001000000000000952D0008A12D0008AD2D00086D
:1001100000000000000000000000000000000000DF
:10012000B92D0008C52D0008D12D0008DD2D0008CF
:10013000E92D0008000000000000000000000000A1
:10014000000000000000000000000000F52D000885
:10015000012E00080D2E0008192E0008252E00087B
:10016000312E00083D2E00080000000000000000B5
:10017000000000000000000000000000000000007F
:1001800000000000492E00080000000000000000F0
:10019000552E0008F12E0008F12E0008F12E00085F
:1001A000F12E0008F12E0008F12E0008F12E0008B3
:1001B000F12E0008F12E0008F12E0008F12E0008A3
:1001C000F12E0008F12E0008F12E0008F12E000893
:1001D000F12E0008F12E0008F12E0008F12E000883
:1001E000000000000000000000000000000000000F
:1001F000F12E0008F12E0008F12E0008F12E000863
:10020000F12E0008F12E0008F12E0008F12E000852
:10021000F12E0008F12E0008F12E0008F12E000842
:10022000F12E0008F12E0008F12E0008F12E000832
:1002300000000000F12E0008F12E0008F12E000849
:1002400000000000000000000000000000000000AE
:10025000F12E000800000000F12E0008F12E000829
:10026000F12E000800000000000000000000000067
:1002700000000000F12E0008F12E0008F12E000809
:10028000F12E0008F12E0008000000000000000020
:10029000000000000000000000000000000000005E
:1002A000F12E0008F12E0008F12E0008F12E0008B2
:1002B000F12E0008F12E0008F12E000800000000C9
:1002C000000000000000000000000000000000002E
:1002D0000000000000000000F12E000800000000F7
:0802E00000000000F12E0008EF
:1002E800844641EA000313F003036DD1403A41D339
:1002F80051F8043B40F8043B51F8043B40F8043BF8
:1003080051F8043B40F8043B51F8043B40F8043BE7
:1003180051F8043B40F8043B51F8043B40F8043BD7
:1003280051F8043B40F8043B51F8043B40F8043BC7
:1003380051F8043B40F8043B51F8043B40F8043BB7
:1003480051F8043B40F8043B51F8043B40F8043BA7
:1003580051F8043B40F8043B51F8043B40F8043B97
:1003680051F8043B40F8043B51F8043B40F8043B87
:10037800403ABDD2303211D351F8043B40F8043B27
:1003880051F8043B40F8043B51F8043B40F8043B67
:1003980051F8043B40F8043B103AEDD20C3205D337
:1003A80051F8043B40F8043B043AF9D2043208D02F
:1003B800D2071CBF11F8013B00F8013B01D30B88A1
:1003C80003806046704700BF082A13D38B078DD07F
:1003D80010F003038AD0C3F10403D21ADB071CBF51
:1003E80011F8013B00F8013B80D331F8023B20F8BB
:1003F800023B7BE7043AD9D3013A11F8013B00F8F4
:10040800013BF9D20B7803704B7843708B7883707B
:100418006046704753B94AB9002908BF00281CBF75
:100428004FF0FF314FF0FF3000F00CB8ADF1080C81
:100438006DE904CE03F046FCDDF804E0DDE90223B3
:1004480004B07047704700BF704700BF704700BFD7
:10045800704700BF38B5D0F8443500F5A8640546A4
:1004680004F1080053B19847AC42A4F1100309D035
:100478001C4604F108006368002BF4D1AC42A4F1D7
:100488001003F5D1284638BD036803F58043B3F857
:10049800AE211AB1013AA3F8AE2170472C48D3F81F
:1004A800F812D0F810086FEA903000F0010040EA26
:1004B8004101C1F30B010129C3F8F81235D040F608
:1004C800FE7C61452AD0C1B283F8F41293F8A001EA
:1004D800D3F8A421884234D0D3F8980183F8A01126
:1004E800904232D9D3F89C1191428CBF002101214E
:1004F80093F8A8211AB1013A83F8A8210221D3F868
:10050800942103EB020C0132002002F07F028CF8E8
:100518001011C3F89421C3F8A4017047012183F88E
:10052800F612A3F8F4221146D0E740F20110A3F81E
:10053800F40293F8A00183F8F6228842D3F8A421A4
:10054800CAD10132C3F8A42170470221D0E700BF05
:100558000000024038B5046804F58044D4F8B4516A
:10056800012D1ED0032D3AD005B138BD02F008FD8B
:1005780094F808332BB3012B09BF314B84F8085387
:100588004FF480229A61D4F80433C31AB3F5FA7F82
:10059800EBD994F80833C4F80403013384F808331A
:1005A80038BD02F0EDFC94F8083373B1012B30D05C
:1005B800002384F80833D4F80433C31AC82BE8D8C6
:1005C80038BD1F4B04229A61DDE7D4F800232021AF
:1005D80082F88010D4F8002382F88430EBE702F028
:1005E800CFFC94F8083373B9D4F80023202182F89B
:1005F8008210D4F8002382F88630D4F80433C31A62
:10060800642BC6D838BD012B0ED0002384F80833DC
:10061800F3E7D4F80033002283F88020D4F80033BD
:10062800202283F88420C6E7D4F80033002283F818
:100638008220D4F80033202283F88620DDE700BF2B
:10064800000002402DE9F04FC94B04681B7894F86C
:10065800806094F881209E4294BF002601269A4229
:1006680094F882204FEA061688BF46F040069A4260
:1006780094F8832088BF46F004069A4294F88420B0
:1006880088BF46F002069A4294F8852088BF46F053
:1006980080069A4294F8862088BF46F020069A423F
:1006A80094F8872004F1180887B088BF46F0080638
:1006B80040469A4288BF46F0010601F001FEA56C4B
:1006C80004F1240005F0010101F004FE05F0020127
:1006D80004F1300001F0FEFD05F0040104F13C00D6
:1006E80001F0F8FDA56C012707FA05F140463140F5
:1006F80001F0F0FD204601F0FFFD20B1D4E91223FE
:1007080097403B43E36404F10C0001F0F5FDA36C52
:1007180028B1E26C4FF4807199400A43E2640133D6
:10072800072BA36440F26C8104F18C0804F1EC0EF1
:100738000022F045E36CA264E26400F0AD8094F816
:10074800942094F88C50012000FA02F21A4014BF49
:1007580001460021A94200F0B48184F88C10002AD7
:1007680040F0518184F88E0094F8A02094F89850B5
:10077800012000FA02F21A4014BF01460021A942E2
:1007880000F0B18184F89810002A40F0558184F86F
:100798009A0094F8AC2094F8A450012000FA02F2D0
:1007A8001A4014BF01460021A94200F0938184F841
:1007B800A410002A40F0398184F8A60094F8B820E3
:1007C80094F8B050012000FA02F21A4014BF014612
:1007D8000021A94200F0638184F8B010002A40F09B
:1007E800478184F8B20094F8C42094F8BC1001251D
:1007F80005FA02F21A4014BF28460020814200F090
:100808007B8184F8BC00002A40F0248184F8BE5023
:1008180094F8D02094F8C810012505FA02F21A407D
:1008280014BF28460020814200F0788184F8C8006F
:10083800002A40F0168184F8CA5094F8DC2094F815
:10084800D410012505FA02F21A4014BF28460020E8
:10085800814200F05A8184F8D400002A40F0F380E5
:1008680084F8D65094F8E82094F8E010012505FAA9
:1008780002F21A4014BF28460020814200F0188175
:1008880084F8E000002A00F0CD8084F8E1500029C7
:1008980040F01181C4F8E41094F8F42094F8EC5076
:1008A800012000FA02F212EA030914BF01460021EE
:1008B8008D4200F07A8284F8EC10B9F1000F40F014
:1008C800A98084F8EE0094F80021012000FA02F2D1
:1008D8001A401546029294F8F82014BF07460027DC
:1008E800BA4200F07C8284F8F870002D00F0D180C4
:1008F80084F8F900002A40F07582C4F8FC2094F8C6
:100908000C21012000FA02F21A401546039294F8CD
:10091800042114BF06460026B24200F0598284F82A
:100928000461002D00F0B28084F80501002A40F02F
:100938005282C4F8082194F818214FF0010C0CFADF
:1009480002F21A401546049294F8102114BF60462A
:1009580000208242019000F0218284F81001002DCD
:1009680000F0918084F811C1002A40F01A8201E059
:100978001C000020C4F8142194F82401012202FA72
:1009880000F010EA030594F81C0114BF94464FF0D8
:10099800000C604500F0128284F81CC1002D7BD049
:1009A80084F81D21002840F00D82C4F8200194F835
:1009B80030214FF0010A0AFA02F212EA030B94F806
:1009C800282114BF50460020824200F0E08184F8BC
:1009D8002801BBF1000F51D084F829A1002A40F06A
:1009E800D981C4F82C2101220592DFF8ACA59AF828
:1009F80000200132D2B21F2A00F299808AF8002022
:100A080007B0BDE8F08F84F88D00002D5CD1C4F8E4
:100A18009050A9E684F8ED00002D40F0C981C4F893
:100A2800F05050E784F8E25036E784F8A500002D2E
:100A380053D1C4F8A850C1E684F89900002D55D1C7
:100A4800C4F89C50A5E684F8D550002960D1C4F8B4
:100A5800D81007E784F8BD50002950D1C4F8C01059
:100A6800D6E684F8C95000295BD1C4F8CC10E4E676
:100A780084F8B100B5B9C4F8B450B4E684F82AA132
:100A880000220592B1E784F812C175E784F80601DF
:100A980051E784F8FA0032E784F81E2187E7002935
:100AA8003FF4A1AED4F8B4200132C4F8B4209AE6D9
:100AB80000293FF4F1AED4F8E4200132C4F8E42070
:100AC800EAE600293FF450AED4F890200132C4F889
:100AD800902049E600293FF471AED4F8A8200132ED
:100AE800C4F8A8206AE600293FF453AED4F89C2045
:100AF8000132C4F89C204CE600293FF489AED4F8B2
:100B0800C0200132C4F8C02082E600293FF4AAAE12
:100B1800D4F8D8200132C4F8D820A3E600293FF43D
:100B28008CAED4F8CC200132C4F8CC2085E6002263
:100B3800F0458AF8002000F0C08094F8942094F8DA
:100B48008CE04FF0010A0AFA02F21A4014BFD046AC
:100B58004FF00008C64500F0EC8184F88C80002A2C
:100B680040F04C8184F88EA094F8A02094F898E086
:100B78004FF0010A0AFA02F21A4014BFD0464FF0A9
:100B88000008C64500F0CB8184F89880002A40F020
:100B98007E8184F89AA094F8AC2094F8A4A04FF031
:100BA800010808FA02F21A4014BFC6464FF0000EB8
:100BB800D64500F0D28184F8A4E0002A40F056819E
:100BC80084F8A68094F8B82094F8B0A04FF00108F3
:100BD80008FA02F21A4014BFC6464FF0000ED64576
:100BE80000F0CF8184F8B0E0002A40F0478184F813
:100BF800B28094F8C42094F8BCA04FF0010808FA19
:100C080002F21A4014BFC6464FF0000ED64500F057
:100C1800AE8184F8BCE0002A40F01F8184F8BE80D1
:100C280094F8D02094F8C8A04FF0010808FA02F20E
:100C38001A4014BFC6464FF0000ED64500F0838117
:100C480084F8C8E0002A40F0008184F8CA8094F84B
:100C5800DC2094F8D4A04FF0010808FA02F21A40F8
:100C680014BFC6464FF0000ED64500F04E8184F8FA
:100C7800D4E0002A40F0E18084F8D68094F8E82097
:100C88004FF0010E0EFA02F2134094F8E02014BF60
:100C9800F0464FF00008424500F02E8184F8E080CD
:100CA800002B00F0C78084F8E1E0002A40F027819B
:100CB800C4F8E42094F82831059394F8EC3099426C
:100CC80000F0F48084F8EC10B9F1000F40F08E8049
:100CD800012384F8EE3094F8F8309F4200F0ED805C
:100CE800029A84F8F870002A00F0A080012284F8A3
:100CF800F920002B40F0E480C4F8FC3094F804316B
:100D08009E4200F0CC80039A84F80461002A00F027
:100D18008980012284F80521002B40F0C380C4F8A3
:100D2800083194F81031019A9A4200F0DE8084F874
:100D38001021049A002A71D0012284F81121002B75
:100D480040F0D680C4F8143194F81C319C4500F06A
:100D5800C48084F81CC1002D5CD0012284F81D21B8
:100D6800002B40F0BE80C4F82031059A904200F074
:100D7800AB8084F828010123BBF1000F47D084F829
:100D88002931002A40F0A380C4F82C2138E6002835
:100D98003FF476AED4F82C21013222E600283FF445
:100DA800EBADD4F814210132E4E500293FF48BAD12
:100DB800D4F8F0200132C4F8F02084E5BCF1000F2B
:100DC8003FF4F5ADD4F820210132C4F82021EEE536
:100DD800002E3FF4B0ADD4F808210132A9E5002F68
:100DE8003FF48DADD4F8FC20013286E5012284F869
:100DF800ED20002B5DD1C4F8F0306CE784F88DA0AD
:100E0800BEF1000F40F09980C4F890E0ACE684F899
:100E18002A31F5E5012384F81E31A6E7012384F879
:100E2800123191E7012384F806317AE7012384F827
:100E3800FA3063E784F8E2E03CE784F8D580BAF159
:100E4800000F66D1C4F8D8A018E784F8C980BAF1B1
:100E5800000F7CD1C4F8CCA0F9E684F8BD80BAF1C3
:100E6800000F40F08880C4F8C0A0D9E684F8A580B7
:100E7800BAF1000F75D1C4F8A8A0A3E684F8B18030
:100E8800BAF1000F40F08180C4F8B4A0B1E684F84C
:100E980099A0BEF1000F46D1C4F89CE07BE6002E75
:100EA8003FF43FAFD4F80831013338E700293FF465
:100EB80012AFD4F8F03001339DE7002F3FF41EAF96
:100EC800D4F8FC30013317E700283FF499ADD4F883
:100ED8002C310133C4F82C3192E5BCF1000F3FF4FA
:100EE80044AFD4F8203101333DE7002A3FF42CAF5A
:100EF800D4F81431013325E7002A3FF4DBAED4F8E7
:100F0800E4300133C4F8E430D4E6BEF1000F3FF416
:100F1800B5AED4F8D8200132C4F8D820AEE6BEF178
:100F2800000F3FF438AED4F89C200132C4F89C205E
:100F380031E6BEF1000F3FF417AED4F8902001322D
:100F4800C4F8902010E6BEF1000F3FF480AED4F84C
:100F5800CC200132C4F8CC2079E6BEF1000F3FF472
:100F680031AED4F8A8200132C4F8A8202AE6BEF190
:100F7800000F3FF455AED4F8C0200132C4F8C020A9
:100F88004EE6BEF1000F3FF434AED4F8B42001327F
:100F9800C4F8B4202DE600BF1C0000204FF0E0216B
:100FA800214A0B6923F007030B61136843F001031F
:100FB800136013689807FCD513681B49002043F099
:100FC8008003136090608B6813F00C0FFBD10B68E3
:100FD800154A23F450230B6013689903FCD4136853
:100FE800114923F0807313600B689A01FCD40B68D5
:100FF8000D4A23F080630B6013681B01FCD4D3688F
:101008000A490B4823F47C53D360D36843F43F0365
:10101800D360536F23F001035367536F43F080731A
:1010280053670860704700BF003802400400002082
:101038000024F4002DE9F04F00F580444FF47F417F
:10104800218020210023A9B0A1700C250621C4E924
:101058006651C4F89431A4F80E31A3800421C4F871
:10106800903184F8A031C4F8A431A4F8AC31C4F8A4
:10107800B431BE4ABE4B84F8A8111C93BD49BE4B7F
:10108800C4F8B0111E901D9382460FCA06AD85E8BC
:101098000F001CAA294610A801F0F4F91D9B0BB1FA
:1010A8001EA8984710A801F045F9B44AB44B069217
:1010B800B44A07920FCB02AE86E80F0031462A46A3
:1010C8001CA8CDF820A001F0DDF9079B0BB108A8FA
:1010D80098471CA801F02EF94FF4967001F056FFBE
:1010E8004FF0000B2346DFF8A092A24FCDF804B0D2
:1010F80054469A46DAF89421DAF89011521A5306AF
:1011080000F0DB804FF001080AF10706DAF89031A9
:101118000AEB0302013303F07F0392F81011CAF8B7
:101128009031504600F072FE052800F21681DFE883
:1011380010F02D011401F300060006005201DAF840
:101148009421DAF890210222CAF8B42101F018FF9C
:10115800DAF80013002281F88020DAF8001381F809
:101168008120DAF8001381F88220DAF8001381F878
:101178008320DAF8001381F88420DAF8001381F864
:101188008520DAF8001381F88620DAF8001381F850
:1011980087204FF48021C9F818104FF02008CAF8AA
:1011A80004038AF808239AF8E832012003F0FF06BE
:1011B8005BBB01F0EBFE01F0E3FE9AF80833002B6D
:1011C80040F00182DAF8003383F88080DAF80033DF
:1011D80083F88180DAF8003383F88280DAF8003304
:1011E80083F88380DAF80433C31A642BDBD99AF8BE
:1011F8000833CAF8040301338AF808339AF8E83246
:10120800012003F0FF06002BD3D09AF8E82232B170
:10121800012001F0BBFE9AF8E832002BF8D101F06A
:10122800AFFEDAF80023002682F88060DAF800239F
:1012380082F88160DAF8002382F88260DAF8002305
:1012480082F88360DAF8002382F88460DAF80023F1
:1012580082F88560DAF8002382F88660DAF80023DD
:1012680082F887604FF48022C9F81820CAF804036E
:101278008AF80863642001F089FE4FF47F42AAF8D7
:10128800002020228AF802200C200622CAE96602E1
:101298000422CAF89461AAF80E61AAF80460CAF890
:1012A80090618AF8A061CAF8A461CAF8B071AAF876
:1012B800AC61CAF8B4618AF8A8219AF8DC22002641
:1012C800002A40F056819AF8E8224FF0010B002AD4
:1012D80040F05A8101230193002E3FF40BAF10A870
:1012E80001F03EF81CA801F03BF804235446CAF864
:1012F800B43194F8E832002BFBD194F8DC32002B9F
:10130800F7D11F9B0BB120A89847139B0BB114A8CA
:10131800984729B0BDE8F08FBAF8AC01CAF8B48193
:1013280000F03F0004EB00204FF480723146FEF7D6
:10133800D7FFBAF8AC3101339BB2AAF8AC3113F03D
:101348003F0300F04B810023AAF804304FF47F4399
:10135800AAF8003020238AF80230DAF89431DAF853
:1013680090219B1A5B067FF4D1AEA6E7883F000860
:101378009104000800000608550400085D050008EF
:10138800983F0008590400080000024001F0F8FDE9
:101398009AF80833002B40F01B81DAF8002320214B
:1013A80082F88110DAF8002382F88530DAF80433FD
:1013B800C31A642BD1D99AF80823DAF89431CAF8F9
:1013C800040301328AF80823DAF890219B1A590697
:1013D8007FF49CAE71E7DAF8B021BA4212D13846F0
:1013E80001F058FB4FF48052CDE90642DAF8B021FB
:1013F80095E8030001F0A6FBDAF8B02102F5804277
:10140800CAF8B0210422DFF80483CAF8B4214FF4E3
:101418008056404601F03EFB08F50033CDE906361C
:10142800424695E8030008F5804801F08BFBB84573
:10143800EFD101F0A5FDDAF80023002682F88060DC
:10144800DAF8002382F88160DAF8002382F88260F3
:10145800DAF8002382F88360DAF8002382F88460DF
:10146800DAF8002382F88560DAF8002382F88660CB
:10147800DAF8002382F887604FF48022C9F8182030
:101488004FF02008CAF804038AF8086300949AF811
:10149800E832012003F0FF043BBB01F077FD01F0C7
:1014A8006FFD9AF80833072B7DD98AF80843DAF8D4
:1014B800003383F88760DAF800339AF80823134476
:1014C80083F88080DAF80433C31AC82BDFD99AF876
:1014D8000833CAF8040301338AF808339AF8E83263
:1014E800012003F0FF04002BD7D09AF8E822009CD3
:1014F80032B1012001F04AFD9AF8E832002BF8D108
:1015080001F03EFD0146DAF80003002280F8802051
:10151800DAF8000380F88120DAF8000380F88220E6
:10152800DAF8000380F88320DAF8000380F88420D2
:10153800DAF8000380F88520DAF8000380F88620BE
:10154800DAF8000380F887204FF48020C9F81800E3
:101558008AF808236420CAF8041301F017FDDAF8A2
:101568009421DAF890219AF8DC220126002A3FF427
:10157800AAAEBBF1000F40F0A1809AF8E8224FF024
:10158800000B002A3FF4A6AE019B002B3FF4A4AE4B
:10159800DAF8B421002A3FF4A2AE00230193002E0A
:1015A8003FF4A8AD9BE6DAF80013002B3FF47FAFB9
:1015B8000B4483F87F409AF80823DAF80033134481
:1015C80083F880807EE7012B5CD08AF8086309E6FF
:1015D800012B68D000238AF80833E7E6DAF8B0016F
:1015E80049490322CAF8B42100F580428A4230D81A
:1015F800009301F04FFA4FF4805207920694DAF8FC
:10160800B02195E8030001F09DFADAF8B021009BBB
:10161800CAF8943102F58042CAF89031AAF8043029
:101628008AF8A031CAF8A431CAF8B021DAF894319E
:10163800DAF890219B1A4FF47F42AAF80020202262
:101648008AF8022004228AF8A8215A067FF45EAD9F
:1016580033E64FF47F41AAF800102021CAF89431EC
:101668008AF80210CAF890310421DAF89401AAF82D
:101678000430DAF890018AF8A031CAF8A4318AF85F
:10168800A81160E5DAF8003383F88060DAF80033EF
:1016980083F88160DAF8003383F88260DAF800337F
:1016A80083F883609EE5DAF80033002283F881200E
:1016B800DAF80033202283F8852077E6642001F0E9
:1016C80065FC0022CAF89421AAF80E21AAF8042081
:1016D800CAF890218AF8A021CAF8A421AAF8AC2156
:1016E800CAF8B4214FF47F42AAF8002020228AF8D1
:1016F80002200C210622CAE966120422CAF8B07137
:101708008AF8A82139E700BF00000808000004088B
:1017180080B5ADF5864D9CB06049614BDFF890E12E
:10172800DFF8909100244FF0006088600694196CEF
:1017380041F080511964196C01F080510691069AA4
:1017480007945A6C42F480425A645B6C554A03F41D
:101758008043079307990894116841F44041116048
:10176800126802F440420892089BBEE80F0018AEC7
:10177800B446ACE80F00BEE80F00ACE80F009EE8E6
:101788000F008CE80F00304601F064FEDFF828E116
:10179800BEE80F000DF1240CACE80F00DEF80030B5
:1017A800CCF80030032109A802F05CF8DFF80CE15E
:1017B800BEE80F000DF1380CACE80F00DEF8003081
:1017C800CCF800300EA802F0F1F802F0E9F8364B38
:1017D800A3FB0030800901F039FC0227042001F046
:1017E8004FFC3249009401233A463046CDE9037450
:1017F800CDE9014400F08CFB06F5834A01F0A6FB15
:1018080006F58046052001F0D3FB4FF07A5CCDE960
:10181800017400946FF0004EC6F8ACC10DF5844019
:101828004FF0004CC6E96EECA9F118012346224698
:101838002030C6E96C44C6E9824400F059FC0DF535
:101848008440A9F11001234622462C30CDE90174C9
:10185800009400F04DFC0DF58440CDE9017400942E
:101868002346A9F1080101223830A0460AF1640A8A
:10187800254600F03DFC4946CDE901750095002359
:101888000AEB0800012200F033FCB8F1180F09F147
:10189800080915D008F10C08EDE700BF00ED00E0DD
:1018A8000038024000700040D34D62100000024032
:1018B800D03F000818400008BC3F0008A83F0008B7
:1018C800DCAB03F573543034CDE90375CDE901552C
:1018D800774900950123C4E9865502220EA800F035
:1018E80017FB01230B21C4E9BD5584F8CC72C4F859
:1018F8004C52C4F85852C4F86452C4F87052C4F830
:101908007C52C4F88852C4F89452C4F8A052C4F85F
:10191800AC52C4F8B852C4F8C452C4F8D052C4F88F
:10192800DC5284F8E452C4F8E852039584F8B432DF
:10193800049384F85412082184F86012072184F86B
:101948006C12052184F87812092184F884120A217E
:1019580084F89012042184F89C12062184F8A812B5
:101968000C210E2284F8C0120F2184F8D82284F8A2
:10197800F0120EA8CDE901354E490095002300F07C
:10198800C7FA18AB03F58343403310934A4B0E93C1
:101998004A4B0F930EAC1CAB03F5844048492246D2
:1019A80000F0C2FE0F9B0BB110A89847DCAB03F503
:1019B80073551CAB03F5844000F0BCFC18AB303504
:1019C80003F5834300244033C5E9C03485F8084350
:1019D80001F0D6FAD5F8003383F88040D5F8003303
:1019E80083F88140D5F8003383F88240D5F8003376
:1019F80083F88340D5F8003383F88440D5F8003362
:101A080083F88540D5F8003383F88640D5F800334D
:101A180083F88740264B4FF480229A61C5F8040367
:101A280085F808434FF4967001F0B0FA4FF4FA4382
:101A380095F8AC2202F0FF01002A35D095F8D022A3
:101A4800013402F0FF01002A2ED0013BF0D16420BE
:101A580001F09CFA43F698239C420DD9DCAB03F5C0
:101A68007353303393F8AC221AB193F8D022002A7A
:101A7800F8D118A8FFF7DEFA124B4FF0FF31002219
:101A880019621A6259625A6219611A6159615A6176
:101A980099619A61FFF782FA0B4B5A681B6883F3C6
:101AA8000888904700BFFDE7013B0C46C0D1CEE750
:101AB80000000240000802404D06000851040008DA
:101AC8003040000800380240000004080A4A136841
:101AD800DB0710D4094B01211160002003F5AA622D
:101AE800002143E9040110339342FAD1044A05491D
:101AF800054802F04BB8704718000020300000205D
:101B0800000000205D04000820000020BFF34F8F74
:101B18000549064BCA6802F4E0621343CB60BFF381
:101B28004F8F00BFFDE700BF00ED00E00400FA059D
:101B3800024A136801331360704700BF7005002024
:101B48001EF0040F0CBFEFF30880EFF3098000F0DC
:101B580001B8704780B495B000AF78609E4B5B6B5E
:101B6800FB639D4B9B6BBB639B4BDB6A7B639A4B15
:101B7800DB6B3B63984B1B6BFB62974B9B6ABB62AF
:101B8800BB6A1B0C9BB2FB84FB8C9BB203F001036A
:101B9800002B14BF01230023DBB287F82530FB8C10
:101BA8009BB203F00203002B14BF01230023DBB216
:101BB80087F82430FB8C9BB203F00403002B14BF7E
:101BC80001230023DBB287F82330FB8C9BB203F0A0
:101BD8000803002B14BF01230023DBB287F822304F
:101BE800FB8C9BB203F48073002B14BF01230023EA
:101BF800DBB287F82130FB8C9BB203F40073002B17
:101C080014BF01230023DBB287F82030BB6A1B0A0C
:101C1800DBB2FB77FB7FDBB203F00103002B14BFC1
:101C280001230023DBB2BB77FB7FDBB203F00203A7
:101C3800002B14BF01230023DBB27B77FB7FDBB2D1
:101C480003F00403002B14BF01230023DBB23B770E
:101C5800FB7FDBB203F00803002B14BF0123002332
:101C6800DBB2FB76FB7FDBB203F01003002B14BF63
:101C780001230023DBB2BB76FB7FDBB203F020033A
:101C8800002B14BF01230023DBB27B76FB7FDBB282
:101C98005BB2DBB2DB09DBB23B76BB6ADBB2FB755E
:101CA800FB7DDBB203F00103002B14BF01230023EB
:101CB800DBB2BB75FB7DDBB203F00203002B14BF64
:101CC80001230023DBB27B75FB7DDBB203F0080345
:101CD800002B14BF01230023DBB23B75FB7DDBB275
:101CE80003F01003002B14BF01230023DBB2FB74A5
:101CF800FB7DDBB203F02003002B14BF012300237C
:101D0800DBB2BB74FB7DDBB25BB2DBB2DB09DBB2FF
:101D18007B747B6B03F00203002B14BF01230023A9
:101D2800DBB23B747B6B03F08043002B14BF0123B1
:101D38000023DBB2FB737B6BDB0FDBB2BB73274B80
:101D4800FB64BB6A9BB2002B14BF0123002387F8F6
:101D58004B307B68DB69DBB2002B14BF0123002307
:101D680087F84A3000BE97F84A30002B03D197F81D
:101D78004B30002B06D01A4B3B643B6C194A1A6057
:101D880000BFFDE7184B7B647B6C1A687B6C1B6893
:101D98001A437B6C1A60154A7B689A617B6800223B
:101DA80062F010021A75002262F041025A75002290
:101DB80062F052029A75002262F02102DA757B689D
:101DC80000221A7700225A7700229A77002242F0DE
:101DD8000102DA7700BFFDE700ED00E00000FFFF39
:101DE8000CED00E00400FA0528ED00E0151B0008E2
:101DF800FEE700BFFEE700BFFEE700BFFEE700BF4B
:101E0800FEE700BFFEE700BFFEE700BF034600781D
:101E1800D8B1012815D1022914D010B5B3F80CC1D6
:101E280003EB0C0E9EF8072011438EF807109A79E1
:101E38000132D2B2082A9A7118D049008EF80710D8
:101E480010BD70470320187070475A780A41D207AE
:101E5800F8D501292BD0022916D09A7809B362BB8C
:101E680001201870A3F80C21DA8070470CF1010CDE
:101E78001FFA8CFC0022BCF5827F9A71A3F80CC172
:101E880021D06344DA7110BD9A88013292B2B2F55A
:101E98007A6F9A8012D3B3F80E217AB105201870A0
:101EA8007047013A0221D2B259709A70D7E79A78EE
:101EB8005970013AD2B29A70D1E7704742F20702DC
:101EC800A3F8012070470F4CD81D03F2071C4FF0F0
:101ED800FF3110F8012B4A40D2B2844554F8222031
:101EE80082EA1121F5D1D3F80701B3F80E21C943CD
:101EF80000BA884214BF0420022001321870A3F8E7
:101F08000E2110BD40400008704700BF704700BF59
:101F1800F0B502F00F024FF0010C079D9DF8144038
:101F280001600CFA02FCA0F804C0856001B9F0BD9C
:101F3800694DA94200F08580684DA94200F08C8067
:101F4800674DA94272D0674DA94200F09080664D56
:101F5800A94200F09780654DA94200F09E800F6865
:101F68009CFAACF5B5FA85F59CFAACFE0326BEFAE8
:101F78008EFE6D0006FA05F54FEA4E0E03FA0EFEC8
:101F880027EA050747EA0E070F60CD689CFAACFE02
:101F9800BEFA8EFE9CFAACF74FEA4E0E06FA0EFE1B
:101FA80025EA0E0EB7FA87F7069D7F0005FA07F7B0
:101FB8004EEA0705CD608D689CFAACFEBEFA8EFE2F
:101FC8009CFAACF74FEA4E0EB7FA87F706FA0EF608
:101FD80025EA06057E00089F07FA06F635438D6058
:101FE8005D1E012DA3D8099D05FA02F24D6825EA68
:101FF8000C052A43022B4A6099D1BCF1FF0F57DD2B
:102008004A6A4FEA1C2C9CFAACF5B5FA85F59CFA9D
:10201800ACF3B3FA83F39B00AD0004FA03F30F2487
:10202800AC4022EA040213434B62F0BD05F520558B
:10203800D5F8306846F00406C5F83068D5F8305849
:102048008DE705F54055D5F8306846F00106C5F826
:102058003068D5F8305882E705F53055D5F830683E
:1020680046F00206C5F83068D5F8305877E705F528
:102078001055D5F8306846F00806C5F83068D5F828
:1020880030586CE705F50055D5F8306846F010066D
:10209800C5F83068D5F8305861E705F5A055D5F88A
:1020A800306846F08006C5F83068D5F8305856E7ED
:1020B8000A6A9CFAACF5B5FA85F59CFAACF3B3FA62
:1020C80083F39B009C40AD000F23AB4022EA03033F
:1020D80023430B62F0BD00BF000002400004024031
:1020E80000080240000C024000100240001C0240A0
:1020F80091F804C0F0B50CF00F0C0C6891F805E0ED
:10210800059D8560012101FA0CF10460818004B904
:10211800F0BD654884427BD06448844200F08380E7
:102128006348844269D06348844200F087806248EB
:10213800844200F08E806148844200F095802768D0
:1021480091FAA1F5B5FA85F591FAA1F00326B0FA4E
:1021580080F06D0006FA05F5400002FA00F027EA63
:10216800050707432760E56891FAA1F0B0FA80F007
:1021780091FAA1F74000B7FA87F706FA00F025EAC6
:1021880000007D00AB400343E360A36891FAA1F52A
:10219800B5FA85F591FAA1F06D00AE40B0FA80F07D
:1021A800069D400023EA060305FA00F00343A360F6
:1021B800531E012BACD86068079B20EA010003FA84
:1021C8000CF30343022A6360A2D1FF2957DD626A38
:1021D800090A91FAA1F0B0FA80F091FAA1F381000E
:1021E800B3FA83F30F209B0000FA01F10EFA03F310
:1021F80022EA010213436362F0BD00F52050D0F8D3
:10220800305845F00405C0F83058D0F8300896E743
:1022180000F54050D0F8305845F00105C0F8305866
:10222800D0F830088BE700F53050D0F8305845F03A
:102238000205C0F83058D0F8300880E700F5105093
:10224800D0F8305845F00805C0F83058D0F83008B4
:1022580075E700F50050D0F8305845F01005C0F883
:102268003058D0F830086AE700F5A050D0F8305858
:1022780045F08005C0F83058D0F830085FE7226A8A
:1022880091FAA1F0B0FA80F091FAA1F3B3FA83F3CE
:102298009B000EFA03FE81000F238B4022EA030302
:1022A80043EA0E032362F0BD00000240000402402E
:1022B80000080240000C024000100240001C0240CE
:1022C80081680268838811B91B0493617047936120
:1022D800704700BF10B402688468838829B134B19C
:1022E8001B045DF8044B93617047002CF8D05DF82F
:1022F800044B9361704700BF026883881269934357
:102308000CBF01200020704710B504460068036820
:102318001A69D1070BD5DA68D20705D582681AB1D0
:102328001030904723681B686FF001021A6110BDD6
:10233800704700BF90F90430002B09DB4FEA531CAB
:10234800064903F01F03012202FA03F341F82C3077
:1023580003686FF001021A61704700BF00E100E0F6
:1023680090F90430002B0DDB5A090748012120326F
:1023780003F01F0301FA03F340F82230BFF34F8F35
:10238800BFF36F8F704700BF00E100E0F8B52DED97
:10239800028B054608EE101A17461E4601F000FB90
:1023A800B8EE488A07EE900A9FED337AF8EE677A1E
:1023B80028EE078A4FF0000C28EE278AFCEEC87A30
:1023C80017EE904AE6460CF1010CB4FBFCF1B1F5AE
:1023D800803FF7D24FF0000C63460CF1010CBEFBB6
:1023E800FCF4FF2CF8D8254895F904C0C068FF2BE9
:1023F800C0F3022088BFFF22C0F1070E92BFA2B22D
:1024080013464FF6FF71041DBEF1040F28BF4FF0AD
:10241800040E062C27D9C41E4FF0FF30A04026EA30
:1024280000064FF0FF3000FA0EF027EA0000A04047
:1024380030430001BCF1000FC0B217DB0CF1604C57
:102448000CF5614C8CF80003286800F085FA2B68BD
:10245800DA68BDEC028B42F00102DA601A6842F0D9
:1024680001021A60F8BD00263446DAE7044C0CF085
:102478000F0C04F80C00E7E75F70893000ED00E00E
:1024880014ED00E02DE9F8430B6803608E46A1497E
:102498008B4204467ED0B3F1804F00F09B80A1F5BB
:1024A8007C418B4200F0B68001F580618B4232D0CE
:1024B80001F580618B4200F00D8101F59A318B4264
:1024C80000F0E88001F580618B4200F0C38001F5DF
:1024D80080618B4294463ED00023037100F10805C9
:1024E800BCE80F000FC5BCE80F000FC59CE803004F
:1024F800894EDFF83082894FB460C6E9008785E8E5
:1025080003002046DEE90223DEF80410FFF73EFF51
:102518002046BDE8F8831E239446037100F10805A0
:10252800BCE80F000FC5BCE80F000FC59CE803000E
:10253800794EDFF8F091DFF8E481794F85E8030000
:10254800C6E97898D7F84038C6F8E84143F004035C
:10255800C7F84038D5E71A23037100F10805BCE82D
:102568000F000FC5BCE80F000FC59CE803006A4EBA
:10257800DFF8B091DFF8A481694F85E80300C6E968
:102588006898D7F84438C6F8A84143F48023C7F8B8
:102598004438B6E719239446037100F10805BCE8EE
:1025A8000F000FC5BCE80F000FC59CE803005A4E8A
:1025B800DFF87091DFF86481594F85E80300C6E9B8
:1025C8006498D7F84438C6F8984143F00103C7F82F
:1025D800443896E71C239446037100F10805BCE8CB
:1025E8000F000FC5BCE80F000FC59CE803004A4E5A
:1025F800DFF83091DFF82481494F85E80300C6E908
:102608007098D7F84038C6F8C84143F00103C7F8B6
:10261800403876E71D239446037100F10805BCE8AD
:102628000F000FC5BCE80F000FC59CE803003A4E29
:10263800DFF8F090DFF8E480394F85E80300C6E959
:102648007498D7F84038C6F8D84143F00203C7F861
:10265800403856E719239446037100F10805BCE891
:102668000F000FC5BCE80F000FC59CE803002A4EF9
:10267800DFF8B090DFF8A480294F85E80300C6E9A9
:102688006498D7F84438C6F8984143F40033C7F83B
:10269800443836E718239446037100F10805BCE86E
:1026A8000F000FC5BCE80F000FC59CE803001A4EC9
:1026B800DFF87090DFF86480194F85E80300C6E9F9
:1026C8006098D7F84438C6F8884143F48033C7F88F
:1026D800443816E732239446037100F10805BCE834
:1026E8000F000FC5BCE80F000FC59CE803000A4E99
:1026F800DFF83090DFF82480094F85E80300C6E949
:10270800C898D7F84038C6F8284343F00803C7F8F4
:102718004038F6E600000140200000203923000878
:1027280000300240112300082DE9F04F0B680360C8
:102738000D466C498B420446944620D0B3F1804F35
:1027480074D0694A934278D002F5806293425ED091
:1027580002F58062934277D002F59A32934200F0F4
:10276800B28002F58062934209D002F580629342FA
:1027780000F0B0805D4F0026B846334605E0DFF82C
:10278800788119263346A8F5C8772371BCE80F006D
:1027980004F1080EAEE80F00BCE80F00AEE80F0029
:1027A8009CE803004FEA061A8EE80300DFF84CB1F4
:1027B80047F80AB007EB06164D4B7360C8F8084097
:1027C800DFF8209123684B454DD0B3F1804F62D09C
:1027D800454A93426FD002F58062934263D002F576
:1027E800806293424FD002F59A32934243D002F569
:1027F800806293422FD002F5806293420ED0D5E9D1
:10280800022369682046BDE8F04FFFF7BFBDDFF837
:10281800F0801E263346A8F5F077B6E7354AD2F899
:10282800443843F48023C2F84438E8E7DFF8D4801A
:102838001C263346A8F5E077A7E7DFF8CC801D26ED
:102848003346A8F5E877A0E7DFF8C080322633469C
:10285800A8F5487799E7274AD2F8443843F4003373
:10286800C2F84438CBE7234AD2F8443843F001038E
:10287800C2F84438C3E71F4AD2F8443843F48033D7
:10288800C2F84438BBE71B4AD2F8403843F0080383
:10289800C2F84038B3E7174AD2F8403843F001038A
:1028A800C2F84038ABE7134AD2F8403843F0040383
:1028B800C2F84038A3E70F4AD2F8403843F0020381
:1028C800C2F840389BE7DFF8488018263346A8F559
:1028D800C0775AE7DFF83C801A263346A8F5D07748
:1028E80053E700BF00000140000400402000002022
:1028F8003923000800300240B001002011230008ED
:1029080000020020E0010020F00100204003002028
:10291800A0010020C00100200A4A1368DB0710D478
:10292800094B01211160002003F5AA62002143E947
:10293800040110339342FAD1044A0549054801F0CD
:1029480025B9704718000020300000200000002042
:102958005D0400082000002070B53B4DA84286B0F9
:1029680004460E4660D0B0F1804F65D037498842A2
:102978002AD001F5806188424ED001F580618842F5
:1029880042D001F59A31884236D001F580618842FB
:102998002AD001F5806188421ED0ADF8042001A933
:1029A80000222046CDF80A20CDF81220CDF80620C6
:1029B800CDE90363ADF8162001F0A0F8236823F0F1
:1029C8008003236006B070BD2148D0F8401841F05C
:1029D8000201C0F84018E0E71D48D0F8441841F457
:1029E8008021C0F84418D8E71948D0F8441841F4B1
:1029F8000031C0F84418D0E71548D0F8441841F41D
:102A08008031C0F84418C8E71148D0F8401841F0A0
:102A18000801C0F84018C0E70D48D0F8401841F048
:102A28000401C0F84018B8E70948D0F8441841F044
:102A38000101C0F84418B0E70548D0F8401841F043
:102A48000101C0F84018A8E7000001400004004058
:102A5800003002400A4A1368DB0710D4094B0121F1
:102A68001160002003F5AA62002143E90401103334
:102A78009342FAD1044A0549054801F087B87047DE
:102A88001800002030000020000000205D0400082D
:102A98002000002030B5294B102120224025D96084
:102AA800DA608021DD604FF480720225D960044627
:102AB800DA6087B0DD6000F0D9FBB4F1006F21D097
:102AC8001F4B9C4230D003F580439C421BD003F53A
:102AD80080439C422AD003F580439C4228D003F5CA
:102AE80080339C4226D003F500339C4224D003F562
:102AF80000339C4208BF072505D000F0CBFB00201F
:102B080007B030BD002501230020CDE901030222D2
:102B1800694601A804930592039500F023FCB0FAD6
:102B280080F0400907B030BD0125ECE70325EAE74E
:102B38000425E8E70525E6E70625E4E7003C02402A
:102B480000400008F0B583B002AB03E90300184B5E
:102B5800009D10242021DC604020D9608021D860AD
:102B6800D9604FF480700221D860D960144600F013
:102B78007DFB019E05EB8606B54204D00D4F55F846
:102B8800042BBC4204D200F085FB012003B0F0BD49
:102B980021460023022000F0C7FA043410B9AE42DF
:102BA800EDD1F0E700F076FB002003B0F0BD00BFE8
:102BB800003C024000400008014850F8083C184713
:102BC80028000020014850F8083C18473800002029
:102BD800014850F8083C184748000020014850F8C0
:102BE800083C184758000020014850F8083C18478E
:102BF80068000020014850F8083C18477800002079
:102C0800014850F8083C184788000020014850F84F
:102C1800083C184798000020014850F8083C18471D
:102C2800A8000020014850F8083C1847B8000020C8
:102C3800014850F8083C1847C8000020014850F8DF
:102C4800083C1847D8000020014850F8083C1847AD
:102C5800E8000020014850F8083C1847F800002018
:102C6800014850F8083C184708010020014850F86E
:102C7800083C184718010020014850F8083C18473C
:102C880028010020014850F8083C18473801002066
:102C9800014850F8083C184748010020014850F8FE
:102CA800083C184798010020014850F8083C18478C
:102CB800A8010020014850F8083C1847B801002036
:102CC800014850F8083C1847C8010020014850F84E
:102CD800083C1847D8010020014850F8083C18471C
:102CE800E8010020014850F8083C1847F801002086
:102CF800014850F8083C184708020020014850F8DD
:102D0800083C184718020020014850F8083C1847AA
:102D180028020020014850F8083C184738020020D3
:102D2800014850F8083C184748020020014850F86C
:102D3800083C184758020020014850F8083C18473A
:102D480068020020014850F8083C18477802002023
:102D5800014850F8083C184788020020014850F8FC
:102D6800083C1847A8020020014850F8083C1847BA
:102D7800B8020020014850F8083C1847C802002053
:102D8800014850F8083C184718030020014850F83B
:102D9800083C184738030020014850F8083C1847F9
:102DA80048030020014850F8083C18475803002001
:102DB800014850F8083C1847A8030020014850F87B
:102DC800083C1847B8030020014850F8083C184749
:102DD800C8030020014850F8083C1847D8030020D1
:102DE800014850F8083C1847E8030020014850F80B
:102DF800083C184758040020014850F8083C184778
:102E080068040020014850F8083C1847780400205E
:102E1800014850F8083C184788040020014850F839
:102E2800083C184798040020014850F8083C184707
:102E3800A8040020014850F8083C1847B8040020AE
:102E4800014850F8083C184738050020014850F858
:102E5800083C1847680500200A4A1368DB0710D4A5
:102E6800094B01211160002003F5AA62002143E902
:102E7800040110339342FAD1044A0549054800F089
:102E880085BE704718000020300000200000002098
:102E98005D04000820000020DFF834D00D480E49FA
:102EA8000E4A002302E0D458C4500433C4188C429C
:102EB800F9D30B4A0B4C002301E013600432A24201
:102EC800FBD300F013F800F067FEFEF721FC704713
:102ED8000080012000000020140000206C4400083D
:102EE800180000202C070020FEE70000034AD2F853
:102EF800883043F47003C2F88830704700ED00E072
:102F0800704700BF38B50E4A0E4B12781B6805464D
:102F18004FF47A70B0FBF2F0B3FBF0F000F096F8E3
:102F280008B90F2D01D9012038BD044602462946AB
:102F38004FF0FF3000F04EF8034B20461D6038BDBF
:102F480008000020040000200C00002008B50B4BEE
:102F58001A6842F400721A601A6842F480621A60B1
:102F68001A6842F480721A60032000F021F80020E9
:102F7800FFF7C8FFFFF7C4FF002008BD003C024070
:102F8800014B1868704700BF7005002038B504462B
:102F9800FFF7F6FF631C054602D0044B1B781C4460
:102FA800FFF7EEFF401BA042FAD338BD080000200F
:102FB8000749CA6803024FF6FF0003F4E0630240C2
:102FC800134343F0BF6343F40033CB60704700BF43
:102FD80000ED00E01B4BDB68C3F3022300B5C3F12F
:102FE800070EBEF1040F03F1040C28BF4FF0040EC6
:102FF800BCF1060F1CD9A3F1030C4FF0FF3303FA01
:103008000CF322EA03024FF0FF3303FA0EF321EA2E
:10301800030303FA0CF313431B010028DBB20ADB9A
:1030280000F1604000F5614080F800335DF804FB72
:1030380000229446E7E7044A00F00F0002441376A2
:103048005DF804FB00ED00E0FCEC00E00138B0F1B5
:10305800807F01D30120704710B44FF0E023074C64
:1030680058614FF0F00C84F823C000220721104665
:103078009A615DF8044B1961704700BF00ED00E0EC
:103088004FF0E022042813690CBF43F0040323F037
:1030980004031361704700BF214BDA68D00605D5D9
:1030A8002049CA6910200243CA61D8601C4BDA68FB
:1030B800910606D51B49CA69202042F00802CA6158
:1030C800D860174BDA68520606D51649CA694020F7
:1030D80042F00402CA61D860114BDA68100606D5BE
:1030E8001049CA69802042F00202CA61D8600C4BBC
:1030F800DA68D10507D50B49CA694FF4807042F0E8
:103108000102CA61D860064BDA68920706D50549FC
:10311800CA69022042F02002CA61D860704700BF25
:10312800003C0240740500202DE9F84F4D4F9B46A6
:103138003B7E012B60D001233B76002381468A46E3
:103148009046FB61FFF71CFF474D04464CF2503692
:1031580004E0FFF715FF001BB04248D8EB68D8031E
:10316800F7D4EB68D90744BF0123EB603E4BDA681C
:1031780012F4F97F54D1B9F1000F40D0B9F1010F21
:103188001A6951D022F440721A61B9F1020F1A6912
:103198005ED042F440721A611A6942F001021A6163
:1031A800CAF80080BFF36F8FCAF804B00023FB6130
:1031B800FFF7E6FE2C4D04464CF2503604E0FFF7CC
:1031C800DFFE001BB04229D8EB68DA03F7D4EB68BE
:1031D800DB0744BF0123EB60234BD86810F4F97078
:1031E80032D1214A136923F00103136100E003205F
:1031F80000233B76BDE8F88F0220BDE8F88F1A69F6
:1032080022F440721A611A691A611A695FFA88F819
:1032180042F001021A618AF80080C7E70320E0E75C
:10322800FFF73AFF0120E3E722F440721A611A69B6
:1032380042F480721A611A691FFA88F842F0010292
:103248001A61AAF80080B1E7FFF726FF0120C8E756
:1032580042F400721A611A6942F001021A61CAF84E
:103268000080A3E774050020003C0240064B1A6961
:10327800002A01DB002070470449054A59605A605A
:103288001869C00F704700BF003C02402301674522
:10329800AB89EFCD034A136943F000430020136163
:1032A800704700BF003C0240164B70B50022044630
:1032B800DA61FFF765FE621C0FD1134AD368D803A1
:1032C800FCD4114BDA68D20744BF0122DA600E4BF6
:1032D800D86810F4F9700FD170BD0B4EF368D9039C
:1032E800EFD5054664B1FFF74BFE401BA04207D857
:1032F800F368DB03F7D4E4E7FFF7CEFE012070BDE7
:10330800032070BD74050020003C0240144B1A686D
:1033180091050FD51A6822F400721A601A6842F4EF
:1033280000621A601A6822F400621A601A6842F48D
:1033380000721A600A4B1A6852050FD51A6822F4EF
:1033480080621A601A6842F480521A601A6822F47D
:1033580080521A601A6842F480621A60704700BF8F
:10336800003C02402DE9F843384F3B7E012B4ED0FC
:10337800012305464CF2503088463B76FFF794FF10
:10338800064600283ED14FF0FF33C8F800302B68BE
:10339800012B40D0D5E902934B44994530D22C4CAF
:1033A80006E0D5E9022309F1010913444B4527D961
:1033B8002B7C022B4FF4407298BF1A02236923F426
:1033C80040732361236913432361236923F0F803BE
:1033D8002361236943EAC90343F002032361236994
:1033E80043F4803323614CF25030FFF75DFF2369CB
:1033F80023F0FA0323610028D3D0C8F800900646CA
:10340800FFF784FF00233B763046BDE8F8830226A9
:103418003046BDE8F8830E4C2B69226922F44072CD
:103428002261226942F00402226122691B029BB2D6
:10343800134343F4803323614CF25030FFF734FFD9
:10344800236923F0040306462361D9E774050020A5
:10345800003C0240002800F0D8812DE9F0410368C3
:10346800DD0782B004462FD59D498A6802F00C0218
:10347800042A00F0EC808A6802F00C02082A00F0A6
:10348800E2806368B3F5803F00F0EB80B3F5A02FCE
:1034980000F07381924D2A6822F480322A602A68EB
:1034A80022F480222A60002B40F0E080FFF768FDBC
:1034B800064605E0FFF764FD801B642800F20081E2
:1034C8002B689F03F6D423689D0728D5844A916802
:1034D80011F00C0F00F09B80916801F00C01082995
:1034E80000F09180E368002B00F00C817D4B7C4E4E
:1034F80001221A60FFF744FD054605E0FFF740FD8D
:10350800401B022800F2DC8033689F07F6D5336839
:10351800226923F0F80343EAC203336023681A07D9
:103528005CD45D073AD56E4A136C13F0805340F0B3
:1035380088800193136C43F080531364136C03F079
:1035480080530193019B0125674E3368D80540F1EC
:10355800A780A368012B00F0B780052B00F01D8120
:103568005F4E326F22F001023267326F22F004029E
:103578003267002B40F0AD80FFF702FD41F288383A
:10358800074605E0FFF7FCFCC01B404500F29880A9
:10359800336F9B07F6D4002D40F0F980A369CBB1B7
:1035A8004F4DAA6802F00C02082A00F0BC80022BDA
:1035B8004C4B4FF000021A6600F0F980FFF7E0FC70
:1035C800044604E0FFF7DCFC001B022878D82B68CF
:1035D8009B01F7D4002002B0BDE8F0816369FBB11C
:1035E800404B3F4E0122C3F8802EFFF7C9FC054629
:1035F80004E0FFF7C5FC401B022861D8736F9B07E6
:10360800F7D523688DE7526851023FF56BAF344A0E
:103618001268920738D5E268012A35D00120DAE726
:10362800304A2F4EC2F8803EFFF7AAFC054604E058
:10363800FFF7A6FC401B022842D8736F9F07F7D4F8
:10364800DFE7002580E74A6851027FF51AAF244A70
:10365800126892037FF538AF6268002A7FF434AFAE
:10366800DCE71F4A136843F480331360FFF788FCD4
:103678001B4E054604E0FFF783FC401B64281FD857
:1036880033689B03F7D51EE7154920690A6822F0BD
:10369800F80242EAC0020A601A077FF542AF9DE7C6
:1036A800336843F480733360FFF76AFC0746336876
:1036B800D9053FF54EAFFFF763FCC01B0228F6D9CA
:1036C800032002B0BDE8F081054A136F43F00103FF
:1036D8001367FFF755FC024F064641F288380AE0A7
:1036E800003802400000474200700040FFF748FCE5
:1036F800801B4045E4D83B6F9A07F7D5002D3FF46F
:103708004DAF44E0424A434E1360FFF739FC05468B
:1037180004E0FFF735FC401B0228D1D8336899072D
:10372800F7D42368FBE6012B3FF478AF6B68E269B6
:1037380003F4800191427FF471AF226A03F03F01E4
:1037480091427FF46BAF616A47F6C0721A40B2EBE0
:10375800811F7FF463AFA26A520803F44031013A33
:10376800B1EB024F7FF45AAFE26A03F07063B3EB38
:10377800026F14BF012000202DE7264B1A6842F47F
:1037880080221A601A6842F480321A606EE7214A71
:10379800136C23F08053136400E71E4B1A6F42F03A
:1037A80004021A671A6F42F001021A6791E7FFF7DD
:1037B800E7FB064605E0FFF7E3FB801B02283FF620
:1037C8007FAF2B689901F6D4D4E90731626A0B43BD
:1037D80043EA8213D4E90A21520843EA0163013A11
:1037E8000B4943EA024301226B600A66FFF7C8FBF4
:1037F800084D044605E0FFF7C3FB001B02283FF60F
:103808005FAF2B689A01F6D5E4E60120704700BF48
:103818000000474200380240104908B58B6803F0A1
:103828000C03082B01D00E4808BD4A684B6849684C
:103838000B4813F48003C1F3881118BF002302F06A
:103848003F02A1FB0001FCF7E5FD044B5B68C3F3F5
:10385800014301335B00B0FBF3F008BD00380240C0
:103868000024F400002800F08780484A136803F019
:1038780007038B422DE9F0410D46044609D2CBB22D
:103888001370136803F007038B4202D00120BDE8D0
:10389800F0812368980714D5590704D53C498A68EC
:1038A80042F4E0528A601A0704D539498A6842F41A
:1038B80060428A603649A0688A6822F0F0020243B2
:1038C8008A60DF0721D56268012A57D0931E012B31
:1038D8002F4B1B684DD99907D8D52D4EB36823F0C7
:1038E80003031343B360FFF74BFB41F288380746E5
:1038F80004E0FFF745FBC01B404544D8B368626845
:1039080003F00C03B3EB820FF3D1204A136803F0E2
:103918000703AB4206D9EBB21370136803F0070331
:10392800AB42B3D123685A0706D51949E0688A68BB
:1039380022F4E05202438A601B0707D5144A216922
:10394800936823F4604343EAC1039360FFF764FF7D
:103958000F4A104C92681049C2F303120346A25C46
:103968000E48D34000680B60FFF7CCFA0020BDE892
:10397800F0819801B1D489E701207047044B1B6896
:103988009E03AAD482E7032081E700BF003C0240DF
:103998000038024040440008040000200C000020C9
:1039A800014B1868704700BF04000020F0B5036899
:1039B80013F0050F83B004460BD19D0742D41B07B3
:1039C80002D4002003B0F0BD484B227CC3F8E021AC
:1039D800F7E7474B474E00229A66FFF7D1FA0546AC
:1039E80004E0FFF7CDFA431B022B28D833681B01EC
:1039F800F7D4D4E901131B0743EA81133C4AC6F8FC
:103A0800843001239366FFF7BBFA3A4E054604E07B
:103A1800FFF7B6FA431B022B11D833681F01F7D5FD
:103A28002368CAE7FFF7ACFA41F2883706462B6FDE
:103A38009A073CD4FFF7A4FA801BB842F7D90320B1
:103A480003B0F0BD2B4B2C4D002201921A6C42F0B2
:103A580080521A641B6C03F080530193019B2B68FE
:103A680043F480732B60FFF78BFA064604E0FFF7F8
:103A780087FA831B022BE2D82B68D805F7D51D4D92
:103A8800E3682A6F12F4407203F4407112D08A423C
:103A980010D02B6F164A0121C2F8401E23F4407340
:103AA8000021C2F8401E2B672B6FD907BAD4E368F0
:103AB80003F44071B1F5407F0CD00E498A6822F4B6
:103AC800F8128A600B4A116FC3F30B030B43136799
:103AD800236874E70748826823F0704121F4407135
:103AE80022F4F8120A438260ECE700BF0010474254
:103AF80000004742003802400070004030B4204DBA
:103B08008C6803680A88A8422BD0B0F1804F16D081
:103B1800A5F57C45A84212D005F58065A8420ED0CF
:103B280005F58065A8420AD0164DA8420BD0164D5F
:103B3800A84208D005F58065A84208D103E04D6881
:103B480023F070032B43C96823F440730B430360CD
:103B5800C4628262436943F00103436130BC0020C0
:103B680070474D6823F070032B43CD6823F44073EE
:103B78002B430360C46282620B690363EAE700BFF8
:103B8800000001400040014000440140034608464F
:103B9800194600F029B800BF70B50F4B0F4DAB4266
:103BA800A3EB050607D0B610002455F8043B0134F2
:103BB8009847A642F9D8FEF7A7F9094D094B5E1BAD
:103BC800AB424FEAA60606D0002455F8043B013460
:103BD8009847A642F9D870BD5844000858440008D0
:103BE800584400086C44000813460A46014602205F
:103BF80000F000B82DE9F8431B4D064628689846A2
:103C08000F46914600F05AF8184B1C681CB32868F8
:103C180065681F2D22DC4EB96B1C0235636044F8C1
:103C2800257000F04DF80020BDE8F88304EB85010D
:103C38000123C1F88890D4F88821AB401A43022E9A
:103C4800C4F88821C1F80881E6D1D4F88C211A4338
:103C5800C4F88C21E0E7064C1C60D8E700F030F887
:103C68004FF0FF30E0E700BF1000002024070020DD
:103C780094050020024B13B1024800F005B87047C4
:103C8800000000009D3C0008002301461A46184623
:103C9800FFF7B0BF38B5074D074C2C1BA41005D053
:103CA800013C55F8043D9847002CF9D1BDE838404F
:103CB800FEF72CB96C4400086C440008704700BF3C
:103CC800704700BF2DE9F047089D0C46002B4ED1E8
:103CD80094468C458646B2FA82F262D94AB1C2F15C
:103CE8002003914020FA03F30CFA02FC194300FA6E
:103CF80002FE4FEA1C471FFA8CF6B1FBF7F44FEAB5
:103D08001E4307FB141143EA014304FB06F19942E1
:103D18000AD91CEB030304F1FF3080F012819942A9
:103D280040F20F81023C6344591A1FFA8EF3B1FB2B
:103D3800F7F007FB101143EA014300FB06F69E4229
:103D48000AD91CEB030300F1FF3180F0FC809E428E
:103D580040F2F980634402389B1B40EA044000218A
:103D68001DB1D3400022C5E90032BDE8F0878B427F
:103D780005D90DB1C5E9000100210846F5E7B3FAF8
:103D880083F1002946D1A34202D39042C0F0F080CB
:103D9800861A64EB03030120002DE6D0C5E9006311
:103DA800E3E7002A40F09080A1EB0C044FEA1C489E
:103DB8001FFA8CF70121B4FBF8F64FEA1E4308FB03
:103DC800164443EA044307FB06F0984208D91CEB63
:103DD800030306F1FF3402D2984200F2CD80264652
:103DE8001C1A1FFA8EF3B4FBF8F008FB104443EAE0
:103DF800044300FB07F79F4208D91CEB030300F1BB
:103E0800FF3402D29F4200F2B0802046DB1B40EA1A
:103E18000640A5E7C1F120068B4022FA06F71F43AA
:103E280020FA06FC04FA01F343EA0C03F44000FA12
:103E380001F8380C4FEA1349B4FBF0FE1FFA87FC6F
:103E480000FB1E4449EA04440EFB0CF9A14502FAA2
:103E580001F20AD93C190EF1FF3A80F08480A1459D
:103E680040F28180AEF1020E3C44A4EB09041FFA33
:103E780083F9B4FBF0F300FB134449EA044403FB61
:103E88000CFCA44507D93C1903F1FF3067D2A445BF
:103E980065D9023B3C4443EA0E40A0FB0293A4EBE5
:103EA8000C049C42CE469C4651D34ED055B1B8EB3B
:103EB8000E0364EB0C0404FA06F6CB401E43CC4018
:103EC800C5E90064002150E7C2F1200320FA03F19C
:103ED8000CFA02FC24FA03F394400C434FEA1C4802
:103EE80000FA02FE1FFA8CF7B3FBF8F008FB10315A
:103EF800230C43EA014300FB07F1994208D91CEB64
:103F0800030300F1FF362CD299422AD902386344C0
:103F18005B1AA4B2B3FBF8F108FB113344EA03447B
:103F280001FB07F3A34208D91CEB040401F1FF3697
:103F380013D2A34211D902396444E41A41EA004178
:103F480039E70446F0E6084606E7C845AED2B9EBBD
:103F5800020E63EB070C0138A8E73146EDE703468C
:103F680099E73046D4E7D6467FE7634402384DE701
:103F78000646234608460FE7023E634430E700BF83
:103F88000004004027B1000000000000000000000D
:103F98000000004040420F00020000000200000044
:103FA8000000000000000000000000000000000009
:103FB800000000000F0000000200000000000000E8
:103FC80000100000000000000100000000000100D7
:103FD80000000000000000000000000000000000D9
:103FE800020000000000400008000000A8000000D7
:103FF8000400000007000000000402400200000066
:10400800000402400A000000000002400300000013
:10401800000002400600000000040240000000000A
:104028000004024001000000000C004024F40000DD
:104038000000000002000000000000009630077732
:104048002C610EEEBA51099919C46D078FF46A7084
:1040580035A563E9A395649E3288DB0EA4B8DC79A4
:104068001EE9D5E088D9D2972B4CB609BD7CB17E24
:10407800072DB8E7911DBF906410B71DF220B06AF4
:104088004871B9F3DE41BE847DD4DA1AEBE4DD6D04
:1040980051B5D4F4C785D38356986C13C0A86B6404
:1040A8007AF962FDECC9658A4F5C0114D96C066324
:1040B800633D0FFAF50D088DC8206E3B5E10694C04
:1040C800E44160D5727167A2D1E4033C47D4044B44
:1040D800FD850DD26BB50AA5FAA8B5356C98B24224
:1040E800D6C9BBDB40F9BCACE36CD832755CDF45A4
:1040F800CF0DD6DC593DD1ABAC30D9263A00DE51D4
:104108008051D7C81661D0BFB5F4B42123C4B356C3
:104118009995BACF0FA5BDB89EB802280888055F43
:10412800B2D90CC624E90BB1877C6F2F114C6858A3
:10413800AB1D61C13D2D66B69041DC760671DB0191
:10414800BC20D2982A10D5EF8985B1711FB5B60663
:10415800A5E4BF9F33D4B8E8A2C9077834F9000FA3
:104168008EA8099618980EE1BB0D6A7F2D3D6D0843
:10417800976C6491015C63E6F4516B6B62616C1C33
:10418800D83065854E0062F2ED95066C7BA5011B63
:10419800C1F4088257C40FF5C6D9B06550E9B71203
:1041A800EAB8BE8B7C88B9FCDF1DDD62492DDA15C3
:1041B800F37CD38C654CD4FB5861B24DCE51B53AE3
:1041C8007400BCA3E230BBD441A5DF4AD795D83DE3
:1041D8006DC4D1A4FBF4D6D36AE96943FCD96E3423
:1041E800468867ADD0B860DA732D0444E51D033303
:1041F8005F4C0AAAC97C0DDD3C710550AA41022713
:1042080010100BBE86200CC925B56857B3856F20E2
:1042180009D466B99FE461CE0EF9DE5E98C9D92942
:104228002298D0B0B4A8D7C7173DB359810DB42E82
:104238003B5CBDB7AD6CBAC02083B8EDB6B3BF9ACE
:104248000CE2B6039AD2B1743947D5EAAF77D29D5A
:104258001526DB048316DC73120B63E3843B64943A
:104268003E6A6D0DA85A6A7A0BCF0EE49DFF09933A
:1042780027AE000AB19E077D44930FF0D2A30887AA
:1042880068F2011EFEC206695D5762F7CB6765805A
:1042980071366C19E7066B6E761BD4FEE02BD3895A
:1042A8005A7ADA10CC4ADD676FDFB9F9F9EFBE8EBA
:1042B80043BEB717D58EB060E8A3D6D67E93D1A1FA
:1042C800C4C2D83852F2DF4FF167BBD16757BCA6DA
:1042D800DD06B53F4B36B248DA2B0DD84C1B0AAF7A
:1042E800F64A0336607A0441C3EF60DF55DF67A8FA
:1042F800EF8E6E3179BE69468CB361CB1A8366BC8A
:10430800A0D26F2536E2685295770CCC03470BBBD9
:10431800B91602222F260555BE3BBAC5280BBDB2D9
:10432800925AB42B046AB35CA7FFD7C231CFD0B579
:104338008B9ED92C1DAEDE5BB0C2649B26F263EC6B
:104348009CA36A750A936D02A906099C3F360EEB79
:104358008567077213570005824ABF95147AB8E239
:10436800AE2BB17B381BB60C9B8ED2920DBED5E519
:10437800B7EFDC7C21DFDB0BD4D2D38642E2D4F169
:10438800F8B3DD686E83DA1FCD16BE815B26B9F6F9
:10439800E177B06F7747B718E65A0888706A0FFF59
:1043A800CA3B06665C0B0111FF9E658F69AE62F819
:1043B800D3FF6B6145CF6C1678E20AA0EED20DD719
:1043C8005483044EC2B30339612667A7F71660D039
:1043D8004D476949DB776E3E4A6AD1AEDC5AD6D979
:1043E800660BDF40F03BD83753AEBCA9C59EBBDE99
:1043F8007FCFB247E9FFB5301CF2BDBD8AC2BACA49
:104408003093B353A6A3B4240536D0BA9306D7CDB8
:104418002957DE54BF67D9232E7A66B3B84A61C4D8
:10442800021B685D942B6F2A37BE0BB4A18E0CC398
:104438001BDF055A8DEF022D000000000000000070
:08444800010203040607080944
:0844500098BEFF7F010000008F
:104458007D3C0008D51A0008212900085D2A0008BB
:04446800612E0008B9
:10446C00000000200024F4000100000010000000F7
:04447C0028070020ED
:0400000508002EA120
:020000040804EE
:1000000000800120451B040801170408511404084E
:1000100005170408091704080D170408000000005C
:10002000000000000000000000000000111704089C
:1000300015170408000000001917040841140408EB
:1000400065180408711804087D1804088918040844
:1000500095180408A1180408AD180408B918040874
:10006000C5180408D1180408DD180408E9180408A4
:10007000F5180408011904080D19040819190408D1
:1000800025190408311904083D190408000000006E
:1000900000000000000000000000000049190408F2
:1000A00055190408611904086D1904087919040820
:1000B00085190408911904089D190408A919040850
:1000C000B5190408C1190408CD190408D919040880
:1000D000E5190408F1190408FD19040800000000DE
:1000E000091A0408151A0408211A0408000000005F
:1000F0000000000000000000000000002D1A0408AD
:1001000000000000391A0408451A0408511A0408AE
:1001100000000000000000000000000000000000DF
:100120005D1A0408691A0408751A0408811A04087B
:100130008D1A04080000000000000000000000000C
:10014000000000000000000000000000991A0408F0
:10015000A51A0408B11A0408BD1A0408C91A04082B
:10016000D51A0408E11A040800000000000000008D
:10017000000000000000000000000000000000007F
:1001800000000000ED1A040800000000000000005C
:10019000F91A0408951B0408951B0408951B04080C
:1001A000951B0408951B0408951B0408951B04085F
:1001B000951B0408951B0408951B0408951B04084F
:1001C000951B0408951B0408951B0408951B04083F
:1001D000951B0408951B0408951B0408951B04082F
:1001E000000000000000000000000000000000000F
:1001F000951B0408951B0408951B0408951B04080F
:10020000951B0408951B0408951B0408951B0408FE
:10021000951B0408951B0408951B0408951B0408EE
:10022000951B0408951B0408951B0408951B0408DE
:1002300000000000951B0408951B0408951B04088A
:1002400000000000000000000000000000000000AE
:10025000951B040800000000951B0408951B04086A
:10026000951B0408000000000000000000000000D2
:1002700000000000951B0408951B0408951B04084A
:10028000951B0408951B04080000000000000000F6
:10029000000000000000000000000000000000005E
:1002A000951B0408951B0408951B0408951B04085E
:1002B000951B0408951B0408951B0408000000000A
:1002C000000000000000000000000000000000002E
:1002D0000000000000000000951B04080000000062
:0802E00000000000951B04085A
:1002E800844641EA000313F003036DD1403A41D339
:1002F80051F8043B40F8043B51F8043B40F8043BF8
:1003080051F8043B40F8043B51F8043B40F8043BE7
:1003180051F8043B40F8043B51F8043B40F8043BD7
:1003280051F8043B40F8043B51F8043B40F8043BC7
:1003380051F8043B40F8043B51F8043B40F8043BB7
:1003480051F8043B40F8043B51F8043B40F8043BA7
:1003580051F8043B40F8043B51F8043B40F8043B97
:1003680051F8043B40F8043B51F8043B40F8043B87
:10037800403ABDD2303211D351F8043B40F8043B27
:1003880051F8043B40F8043B51F8043B40F8043B67
:1003980051F8043B40F8043B103AEDD20C3205D337
:1003A80051F8043B40F8043B043AF9D2043208D02F
:1003B800D2071CBF11F8013B00F8013B01D30B88A1
:1003C80003806046704700BF082A13D38B078DD07F
:1003D80010F003038AD0C3F10403D21ADB071CBF51
:1003E80011F8013B00F8013B80D331F8023B20F8BB
:1003F800023B7BE7043AD9D3013A11F8013B00F8F4
:10040800013BF9D20B7803704B7843708B7883707B
:100418006046704753B94AB9002908BF00281CBF75
:100428004FF0FF314FF0FF3000F00CB8ADF1080C81
:100438006DE904CE1CF036FDDDF804E0DDE90223A9
:1004480004B07047704700BFF0B502F00F024FF0DC
:10045800010C079D9DF8144001600CFA02FCA0F8FD
:1004680004C0856001B9F0BD694DA94200F08580DE
:10047800684DA94200F08C80674DA94272D0674D43
:10048800A94200F09080664DA94200F09780654D22
:10049800A94200F09E800F689CFAACF5B5FA85F584
:1004A8009CFAACFE0326BEFA8EFE6D0006FA05F530
:1004B8004FEA4E0E03FA0EFE27EA050747EA0E0733
:1004C8000F60CD689CFAACFEBEFA8EFE9CFAACF7C3
:1004D8004FEA4E0E06FA0EFE25EA0E0EB7FA87F719
:1004E800069D7F0005FA07F74EEA0705CD608D687F
:1004F8009CFAACFEBEFA8EFE9CFAACF74FEA4E0EA2
:10050800B7FA87F706FA0EF625EA06057E00089F71
:1005180007FA06F635438D605D1E012DA3D8099DA7
:1005280005FA02F24D6825EA0C052A43022B4A60B7
:1005380099D1BCF1FF0F57DD4A6A4FEA1C2C9CFA8F
:10054800ACF5B5FA85F59CFAACF3B3FA83F39B00E6
:10055800AD0004FA03F30F24AC4022EA040213436B
:100568004B62F0BD05F52055D5F8306846F0040615
:10057800C5F83068D5F830588DE705F54055D5F8F9
:10058800306846F00106C5F83068D5F8305882E77B
:1005980005F53055D5F8306846F00206C5F83068DC
:1005A800D5F8305877E705F51055D5F8306846F096
:1005B8000806C5F83068D5F830586CE705F50055D9
:1005C800D5F8306846F01006C5F83068D5F83058C8
:1005D80061E705F5A055D5F8306846F08006C5F8FE
:1005E8003068D5F8305856E70A6A9CFAACF5B5FA7F
:1005F80085F59CFAACF3B3FA83F39B009C40AD00FD
:100608000F23AB4022EA030323430B62F0BD00BF74
:10061800000002400004024000080240000C0240B2
:1006280000100240001C02402DE9F04191F804E05E
:100638004D790968069C84600EF00F0E4FF0010C8E
:100648000CFA0EFC0160A0F804C009B9BDE8F081FD
:10065800674CA14200F08180664CA14200F088807E
:10066800654CA1426ED0654CA14200F08C80644C70
:10067800A14200F09380634CA14200F09A80D1F827
:1006880000809CFAACF6B6FA86F69CFAACF403271E
:10069800B4FA84F4760007FA06F6640028EA060835
:1006A80002FA04F448EA04040C60CE689CFAACF43C
:1006B800B4FA84F49CFAACF86400B8FA88F807FA3B
:1006C80004F426EA04044FEA4806B3402343CB6007
:1006D8008B689CFAACF6B6FA86F69CFAACF476000F
:1006E800B740B4FA84F4079E640023EA070306FAC5
:1006F80004F423438B60531E012BA7D84C68089B36
:1007080024EA0C0403FA0EF32343022A4B609DD11A
:10071800BCF1FF0F58DD4A6A4FEA1C2C9CFAACF476
:10072800B4FA84F49CFAACF3B3FA83F39B0005FAA9
:1007380003F3A4000F2505FA04F422EA0402134384
:100748004B6283E704F52054D4F8306846F0040679
:10075800C4F83068D4F8304891E704F54054D4F828
:10076800306846F00106C4F83068D4F8304886E7A7
:1007780004F53054D4F8306846F00206C4F83068FE
:10078800D4F830487BE704F51054D4F8306846F0C4
:100798000806C4F83068D4F8304870E704F5005407
:1007A800D4F8306846F01006C4F83068D4F83048F9
:1007B80065E704F5A054D4F8306846F08006C4F81C
:1007C8003068D4F830485AE70A6A9CFAACF4B4FAAC
:1007D80084F49CFAACF3B3FA83F39B009D40A40025
:1007E8000F23A34022EA03032B430B622EE700BF2B
:1007F800000002400004024000080240000C0240D1
:1008080000100240001C024091F804C0F0B50CF042
:100818000F0C0C6891F805E0059D8560012101FA2F
:100828000CF10460818004B9F0BD654884427BD036
:100838006448844200F083806348844269D06348F6
:10084800844200F087806248844200F08E806148CC
:10085800844200F09580276891FAA1F5B5FA85F5EC
:1008680091FAA1F00326B0FA80F06D0006FA05F5BA
:10087800400002FA00F027EA050707432760E56809
:1008880091FAA1F0B0FA80F091FAA1F74000B7FA16
:1008980087F706FA00F025EA00007D00AB40034325
:1008A800E360A36891FAA1F5B5FA85F591FAA1F08C
:1008B8006D00AE40B0FA80F0069D400023EA0603C2
:1008C80005FA00F00343A360531E012BACD86068FF
:1008D800079B20EA010003FA0CF30343022A636032
:1008E800A2D1FF2957DD626A090A91FAA1F0B0FA8C
:1008F80080F091FAA1F38100B3FA83F30F209B00F3
:1009080000FA01F10EFA03F322EA010213436362CB
:10091800F0BD00F52050D0F8305845F00405C0F877
:100928003058D0F8300896E700F54050D0F83058E5
:1009380045F00105C0F83058D0F830088BE700F5CD
:100948003050D0F8305845F00205C0F83058D0F88B
:10095800300880E700F51050D0F8305845F0080509
:10096800C0F83058D0F8300875E700F50050D0F8D6
:10097800305845F01005C0F83058D0F830086AE70C
:1009880000F5A050D0F8305845F08005C0F8305830
:10099800D0F830085FE7226A91FAA1F0B0FA80F047
:1009A80091FAA1F3B3FA83F39B000EFA03FE8100D8
:1009B8000F238B4022EA030343EA0E032362F0BDB0
:1009C800000002400004024000080240000C0240FF
:1009D80000100240001C024081680268838811B937
:1009E8001B04936170479361704700BF10B402689D
:1009F8008468838829B134B11B045DF8044B936182
:100A08007047002CF8D05DF8044B9361704700BF25
:100A180002688388126993430CBF01200020704745
:100A2800026881688388126921B993430CBF012049
:100A380000207047934314BF01200020704700BF77
:100A480070B53B4DA84286B004460E4660D0B0F162
:100A5800804F65D0374988422AD001F580618842A5
:100A68004ED001F58061884242D001F59A31884222
:100A780036D001F5806188422AD001F5806188422C
:100A88001ED0ADF8042001A900222046CDF80A2086
:100A9800CDF81220CDF80620CDE90363ADF8162075
:100AA8001BF0ACFF236823F08003236006B070BD01
:100AB8002148D0F8401841F00201C0F84018E0E79A
:100AC8001D48D0F8441841F48021C0F84418D8E7EC
:100AD8001948D0F8441841F40031C0F84418D0E758
:100AE8001548D0F8441841F48031C0F84418C8E7D4
:100AF8001148D0F8401841F00801C0F84018C0E784
:100B08000D48D0F8401841F00401C0F84018B8E783
:100B18000948D0F8441841F00101C0F84418B0E77A
:100B28000548D0F8401841F00101C0F84018A8E77E
:100B380000000140000400400030024010B50446A7
:100B4800006803681A69D1070BD5DA68D20705D59A
:100B580082681AB11030904723681B686FF0010251
:100B68001A6110BD704700BF38B5D0F8443500F59C
:100B7800A864054604F1080053B19847AC42A4F1B3
:100B8800100309D01C4604F108006368002BF4D157
:100B9800AC42A4F11003F5D1284638BD90F90430D1
:100BA800002B09DB4FEA531C064903F01F030122FF
:100BB80002FA03F341F82C3003686FF001021A615E
:100BC800704700BF00E100E090F90430002B0DDB16
:100BD8005A0907480121203203F01F0301FA03F3E1
:100BE80040F82230BFF34F8FBFF36F8F704700BFBD
:100BF80000E100E0F8B52DED028B054608EE101A6D
:100C080017461E461BF03CFEB8EE488A07EE900ACF
:100C18009FED337AF8EE677A28EE078A4FF0000CDA
:100C280028EE278AFCEEC87A17EE904AE6460CF1C1
:100C3800010CB4FBFCF1B1F5803FF7D24FF0000C8A
:100C480063460CF1010CBEFBFCF4FF2CF8D82548D8
:100C580095F904C0C068FF2BC0F3022088BFFF22AB
:100C6800C0F1070E92BFA2B213464FF6FF71041DE2
:100C7800BEF1040F28BF4FF0040E062C27D9C41E5E
:100C88004FF0FF30A04026EA00064FF0FF3000FA90
:100C98000EF027EA0000A04030430001BCF1000F2D
:100CA800C0B217DB0CF1604C0CF5614C8CF80003FA
:100CB8002868FFF7C5FE2B68DA68BDEC028B42F0A6
:100CC8000102DA601A6842F001021A60F8BD0026D3
:100CD8003446DAE7044C0CF00F0C04F80C00E7E794
:100CE8005F70893000ED00E014ED00E02DE9F84375
:100CF8000B6803608E46A1498B4204467ED0B3F14F
:100D0800804F00F09B80A1F57C418B4200F0B680BB
:100D180001F580618B4232D001F580618B4200F091
:100D28000D8101F59A318B4200F0E88001F5806170
:100D38008B4200F0C38001F580618B4294463ED01F
:100D48000023037100F10805BCE80F000FC5BCE8DB
:100D58000F000FC59CE80300894EDFF83082894FE9
:100D6800B460C6E9008785E803002046DEE902236F
:100D7800DEF80410FFF73EFF2046BDE8F8831E2387
:100D88009446037100F10805BCE80F000FC5BCE8E4
:100D98000F000FC59CE80300794EDFF8F091DFF8EB
:100DA800E481794F85E80300C6E97898D7F8403898
:100DB800C6F8E84143F00403C7F84038D5E71A23DA
:100DC800037100F10805BCE80F000FC5BCE80F006F
:100DD8000FC59CE803006A4EDFF8B091DFF8A481E4
:100DE800694F85E80300C6E96898D7F84438C6F81B
:100DF800A84143F48023C7F84438B6E7192394463A
:100E0800037100F10805BCE80F000FC5BCE80F002E
:100E18000FC59CE803005A4EDFF87091DFF8648133
:100E2800594F85E80300C6E96498D7F84438C6F8EE
:100E3800984143F00103C7F8443896E71C239446C9
:100E4800037100F10805BCE80F000FC5BCE80F00EE
:100E58000FC59CE803004A4EDFF83091DFF8248183
:100E6800494F85E80300C6E97098D7F84038C6F8B6
:100E7800C84143F00103C7F8403876E71D2394467C
:100E8800037100F10805BCE80F000FC5BCE80F00AE
:100E98000FC59CE803003A4EDFF8F090DFF8E480D5
:100EA800394F85E80300C6E97498D7F84038C6F882
:100EB800D84143F00203C7F8403856E7192394464F
:100EC800037100F10805BCE80F000FC5BCE80F006E
:100ED8000FC59CE803002A4EDFF8B090DFF8A48025
:100EE800294F85E80300C6E96498D7F84438C6F85E
:100EF800984143F40033C7F8443836E7182394463A
:100F0800037100F10805BCE80F000FC5BCE80F002D
:100F18000FC59CE803001A4EDFF87090DFF8648074
:100F2800194F85E80300C6E96098D7F84438C6F831
:100F3800884143F48033C7F8443816E7322394468F
:100F4800037100F10805BCE80F000FC5BCE80F00ED
:100F58000FC59CE803000A4EDFF83090DFF82480C4
:100F6800094F85E80300C6E9C898D7F84038C6F89D
:100F7800284343F00803C7F84038F6E6000001406C
:100F8800280700206D0B040800300240450B0408B8
:100F98002DE9F04F0B6803600D466C498B420446FF
:100FA800944620D0B3F1804F74D0694A934278D0E8
:100FB80002F5806293425ED002F58062934277D058
:100FC80002F59A32934200F0B28002F580629342B1
:100FD80009D002F58062934200F0B0805D4F002690
:100FE800B846334605E0DFF8788119263346A8F578
:100FF800C8772371BCE80F0004F1080EAEE80F00B3
:10100800BCE80F00AEE80F009CE803004FEA061AA0
:101018008EE80300DFF84CB147F80AB007EB061674
:101028004D4B7360C8F80840DFF8209123684B45A2
:101038004DD0B3F1804F62D0454A93426FD002F54C
:101048008062934263D002F5806293424FD002F5EA
:101058009A32934243D002F5806293422FD002F530
:10106800806293420ED0D5E9022369682046BDE824
:10107800F04FFFF7BFBDDFF8F0801E263346A8F516
:10108800F077B6E7354AD2F8443843F48023C2F8FB
:101098004438E8E7DFF8D4801C263346A8F5E07723
:1010A800A7E7DFF8CC801D263346A8F5E877A0E748
:1010B800DFF8C08032263346A8F5487799E7274AF3
:1010C800D2F8443843F40033C2F84438CBE7234A13
:1010D800D2F8443843F00103C2F84438C3E71F4A42
:1010E800D2F8443843F48033C2F84438BBE71B4A8B
:1010F800D2F8403843F00803C2F84038B3E7174A3B
:10110800D2F8403843F00103C2F84038ABE7134A3D
:10111800D2F8403843F00403C2F84038A3E70F4A36
:10112800D2F8403843F00203C2F840389BE7DFF8B2
:10113800488018263346A8F5C0775AE7DFF83C8080
:101148001A263346A8F5D07753E700BF00000140C0
:1011580000040040280700206D0B040800300240FE
:10116800B8080020450B040808090020E8080020FA
:10117800F8080020480A0020A8080020C808002015
:101188000A4A1368DB0710D4094B012111600020BB
:1011980003F5AA62002143E9040110339342FAD10E
:1011A800044A054905481BF0BBBD704720070020CD
:1011B8003807002004000020710B040828070020CD
:1011C8002DE9F04F85B08846DDF838B0BDF83CA071
:1011D8001746041D9EB210254FF01E093346CDE96F
:1011E80001A93A464146CDF800B020461AF06AFFF8
:1011F8000346204633B11BF057F8042801D1013DBE
:10120800ECD10323184605B0BDE8F08F43684BB115
:10121800234A93421BD0234A934204D002F58062AA
:10122800934228D07047204BD3F8402822F48002FC
:10123800C3F84028D3F8202842F48002C3F82028B5
:10124800D3F8202822F48002C3F820287047164BD0
:10125800D3F8402822F40012C3F84028D3F82028F5
:1012680042F40012C3F82028D3F8202822F40012F0
:10127800C3F8202870470C4BD3F8402822F400020A
:10128800C3F84028D3F8202842F40002C3F82028E5
:10129800D3F8202822F40002C3F82028704700BFA2
:1012A8000054004000580040003002402DE9F04151
:1012B80001278CB002264FF00008CDE90367CDE97D
:1012C80001784B7C00930D460A7CC9680446334676
:1012D80006A8FFF7B9F8CDE90367CDF808806B7A5F
:1012E800CDE9003709A869682A7A3346FFF7ACF8D0
:1012F8002178002949D12046FFF788FF33222B683F
:1013080022614FF4804262616A69A2602E4A63607A
:101318009342C4E90611C4E90811E16009D02B4AD7
:10132800934236D02A4A934240D073B9A4F8583031
:101338000BE002F5EE3242F21F01D2F84038A4F871
:10134800581043F40013C2F84038261D30461AF0EE
:101358009FFE30461AF0D2FD98B995F8201081F01A
:101368000101304609011AF0A1FF50B995F8211082
:1013780030461AF0BBFF20B9012323700CB0BDE83A
:10138800F08101200CB0BDE8F08130460CB0BDE81A
:10139800F08102F5EC3242F22121D2F84038A4F86B
:1013A800581043F48003C2F84038CEE702F5EA3219
:1013B80044F64811D2F84038A4F8581043F4000312
:1013C800C2F84038C1E700BF005400400058004050
:1013D800005C00400A4A1368DB0710D4094B01215E
:1013E8001160002003F5AA62002143E904011033CB
:1013F8009342FAD1044A054905481BF091BC70474D
:10140800200700203807002004000020710B040882
:1014180028070020BFF34F8F0549064BCA6802F41E
:10142800E0621343CB60BFF34F8F00BFFDE700BFFF
:1014380000ED00E00400FA05024A13680133136066
:10144800704700BFA40C00201EF0040F0CBFEFF380
:101458000880EFF3098000F001B8704780B495B0B8
:1014680000AF78609E4B5B6BFB639D4B9B6BBB63D4
:101478009B4BDB6A7B639A4BDB6B3B63984B1B6B29
:10148800FB62974B9B6ABB62BB6A1B0C9BB2FB84DB
:10149800FB8C9BB203F00103002B14BF0123002334
:1014A800DBB287F82530FB8C9BB203F00203002BDC
:1014B80014BF01230023DBB287F82430FB8C9BB2D6
:1014C80003F00403002B14BF01230023DBB287F8C9
:1014D8002330FB8C9BB203F00803002B14BF0123BD
:1014E8000023DBB287F82230FB8C9BB203F48073B5
:1014F800002B14BF01230023DBB287F82130FB8CBB
:101508009BB203F40073002B14BF01230023DBB24A
:1015180087F82030BB6A1B0ADBB2FB77FB7FDBB2A4
:1015280003F00103002B14BF01230023DBB2BB77B8
:10153800FB7FDBB203F00203002B14BF012300235F
:10154800DBB27B77FB7FDBB203F00403002B14BF15
:1015580001230023DBB23B77FB7FDBB203F00803F8
:10156800002B14BF01230023DBB2FB76FB7FDBB229
:1015780003F01003002B14BF01230023DBB2BB765A
:10158800FB7FDBB203F02003002B14BF01230023F1
:10159800DBB27B76FB7FDBB25BB2DBB2DB09DBB2B3
:1015A8003B76BB6ADBB2FB75FB7DDBB203F0010364
:1015B800002B14BF01230023DBB2BB75FB7DDBB21C
:1015C80003F00203002B14BF01230023DBB27B7559
:1015D800FB7DDBB203F00803002B14BF01230023BB
:1015E800DBB23B75FB7DDBB203F01003002B14BFAD
:1015F80001230023DBB2FB74FB7DDBB203F0200385
:10160800002B14BF01230023DBB2BB74FB7DDBB2CC
:101618005BB2DBB2DB09DBB27B747B6B03F00203EA
:10162800002B14BF01230023DBB23B747B6B03F058
